{
  "_format": "hh-sol-artifact-1",
  "contractName": "HealthRecords",
  "sourceName": "contracts/HealthRecords.sol",
  "abi": [
    {
      "inputs": [],
      "stateMutability": "nonpayable",
      "type": "constructor"
    },
    {
      "anonymous": false,
      "inputs": [
        {
          "indexed": false,
          "internalType": "address",
          "name": "hospital",
          "type": "address"
        },
        {
          "indexed": false,
          "internalType": "string",
          "name": "name",
          "type": "string"
        }
      ],
      "name": "HospitalAuthorized",
      "type": "event"
    },
    {
      "anonymous": false,
      "inputs": [
        {
          "indexed": false,
          "internalType": "string",
          "name": "patientId",
          "type": "string"
        },
        {
          "indexed": false,
          "internalType": "string",
          "name": "hospitalName",
          "type": "string"
        }
      ],
      "name": "RecordAdded",
      "type": "event"
    },
    {
      "inputs": [
        {
          "internalType": "string",
          "name": "_patientId",
          "type": "string"
        },
        {
          "internalType": "string",
          "name": "_doctorName",
          "type": "string"
        },
        {
          "internalType": "string",
          "name": "_diagnosis",
          "type": "string"
        },
        {
          "internalType": "string",
          "name": "_medicines",
          "type": "string"
        },
        {
          "internalType": "string",
          "name": "_testResults",
          "type": "string"
        },
        {
          "internalType": "string",
          "name": "_notes",
          "type": "string"
        }
      ],
      "name": "addRecord",
      "outputs": [],
      "stateMutability": "nonpayable",
      "type": "function"
    },
    {
      "inputs": [
        {
          "internalType": "address",
          "name": "_addr",
          "type": "address"
        },
        {
          "internalType": "string",
          "name": "_name",
          "type": "string"
        }
      ],
      "name": "authorizeHospital",
      "outputs": [],
      "stateMutability": "nonpayable",
      "type": "function"
    },
    {
      "inputs": [
        {
          "internalType": "address",
          "name": "",
          "type": "address"
        }
      ],
      "name": "authorizedHospitals",
      "outputs": [
        {
          "internalType": "bool",
          "name": "",
          "type": "bool"
        }
      ],
      "stateMutability": "view",
      "type": "function"
    },
    {
      "inputs": [
        {
          "internalType": "string",
          "name": "_patientId",
          "type": "string"
        }
      ],
      "name": "getPatientRecords",
      "outputs": [
        {
          "components": [
            {
              "internalType": "uint256",
              "name": "recordId",
              "type": "uint256"
            },
            {
              "internalType": "string",
              "name": "patientId",
              "type": "string"
            },
            {
              "internalType": "string",
              "name": "hospitalName",
              "type": "string"
            },
            {
              "internalType": "string",
              "name": "doctorName",
              "type": "string"
            },
            {
              "internalType": "string",
              "name": "diagnosis",
              "type": "string"
            },
            {
              "internalType": "string",
              "name": "medicines",
              "type": "string"
            },
            {
              "internalType": "string",
              "name": "testResults",
              "type": "string"
            },
            {
              "internalType": "string",
              "name": "notes",
              "type": "string"
            },
            {
              "internalType": "uint256",
              "name": "visitDate",
              "type": "uint256"
            }
          ],
          "internalType": "struct HealthRecords.Record[]",
          "name": "",
          "type": "tuple[]"
        }
      ],
      "stateMutability": "view",
      "type": "function"
    },
    {
      "inputs": [],
      "name": "governmentAdmin",
      "outputs": [
        {
          "internalType": "address",
          "name": "",
          "type": "address"
        }
      ],
      "stateMutability": "view",
      "type": "function"
    },
    {
      "inputs": [
        {
          "internalType": "address",
          "name": "",
          "type": "address"
        }
      ],
      "name": "hospitalNames",
      "outputs": [
        {
          "internalType": "string",
          "name": "",
          "type": "string"
        }
      ],
      "stateMutability": "view",
      "type": "function"
    },
    {
      "inputs": [],
      "name": "totalRecords",
      "outputs": [
        {
          "internalType": "uint256",
          "name": "",
          "type": "uint256"
        }
      ],
      "stateMutability": "view",
      "type": "function"
    }
  ],
  "bytecode": "0x608060405234801561001057600080fd5b50336000806101000a81548173ffffffffffffffffffffffffffffffffffffffff021916908373ffffffffffffffffffffffffffffffffffffffff160217905550611855806100606000396000f3fe608060405234801561001057600080fd5b506004361061007d5760003560e01c80635cd40af51161005b5780635cd40af5146100ee5780637d9aacdb1461011e578063a9fd62961461014e578063f06b3b791461016a5761007d565b806304ca0ea414610082578063125f8974146100a057806355b8dd14146100be575b600080fd5b61008a610186565b6040516100979190610bd5565b60405180910390f35b6100a86101aa565b6040516100b59190610c09565b60405180910390f35b6100d860048036038101906100d39190610c64565b6101b0565b6040516100e59190610d21565b60405180910390f35b61010860048036038101906101039190610e78565b610250565b60405161011591906110cb565b60405180910390f35b61013860048036038101906101339190610c64565b6106e0565b6040516101459190611108565b60405180910390f35b61016860048036038101906101639190611123565b610700565b005b610184600480360381019061017f919061117f565b610870565b005b60008054906101000a900473ffffffffffffffffffffffffffffffffffffffff1681565b60015481565b600460205280600052604060002060009150905080546101cf906112e3565b80601f01602080910402602001604051908101604052809291908181526020018280546101fb906112e3565b80156102485780601f1061021d57610100808354040283529160200191610248565b820191906000526020600020905b81548152906001019060200180831161022b57829003601f168201915b505050505081565b60606002826040516102629190611350565b9081526020016040518091039020805480602002602001604051908101604052809291908181526020016000905b828210156106d5578382906000526020600020906009020160405180610120016040529081600082015481526020016001820180546102ce906112e3565b80601f01602080910402602001604051908101604052809291908181526020018280546102fa906112e3565b80156103475780601f1061031c57610100808354040283529160200191610347565b820191906000526020600020905b81548152906001019060200180831161032a57829003601f168201915b50505050508152602001600282018054610360906112e3565b80601f016020809104026020016040519081016040528092919081815260200182805461038c906112e3565b80156103d95780601f106103ae576101008083540402835291602001916103d9565b820191906000526020600020905b8154815290600101906020018083116103bc57829003601f168201915b505050505081526020016003820180546103f2906112e3565b80601f016020809104026020016040519081016040528092919081815260200182805461041e906112e3565b801561046b5780601f106104405761010080835404028352916020019161046b565b820191906000526020600020905b81548152906001019060200180831161044e57829003601f168201915b50505050508152602001600482018054610484906112e3565b80601f01602080910402602001604051908101604052809291908181526020018280546104b0906112e3565b80156104fd5780601f106104d2576101008083540402835291602001916104fd565b820191906000526020600020905b8154815290600101906020018083116104e057829003601f168201915b50505050508152602001600582018054610516906112e3565b80601f0160208091040260200160405190810160405280929190818152602001828054610542906112e3565b801561058f5780601f106105645761010080835404028352916020019161058f565b820191906000526020600020905b81548152906001019060200180831161057257829003601f168201915b505050505081526020016006820180546105a8906112e3565b80601f01602080910402602001604051908101604052809291908181526020018280546105d4906112e3565b80156106215780601f106105f657610100808354040283529160200191610621565b820191906000526020600020905b81548152906001019060200180831161060457829003601f168201915b5050505050815260200160078201805461063a906112e3565b80601f0160208091040260200160405190810160405280929190818152602001828054610666906112e3565b80156106b35780601f10610688576101008083540402835291602001916106b3565b820191906000526020600020905b81548152906001019060200180831161069657829003601f168201915b5050505050815260200160088201548152505081526020019060010190610290565b505050509050919050565b60036020528060005260406000206000915054906101000a900460ff1681565b60008054906101000a900473ffffffffffffffffffffffffffffffffffffffff1673ffffffffffffffffffffffffffffffffffffffff163373ffffffffffffffffffffffffffffffffffffffff161461078e576040517f08c379a0000000000000000000000000000000000000000000000000000000008152600401610785906113b3565b60405180910390fd5b6001600360008473ffffffffffffffffffffffffffffffffffffffff1673ffffffffffffffffffffffffffffffffffffffff16815260200190815260200160002060006101000a81548160ff02191690831515021790555080600460008473ffffffffffffffffffffffffffffffffffffffff1673ffffffffffffffffffffffffffffffffffffffff1681526020019081526020016000209081610832919061157f565b507f3dbbd8bb5e27392f2a0f95f688f8bcdecade8834c2639a3bbbd8566e853500368282604051610864929190611651565b60405180910390a15050565b600360003373ffffffffffffffffffffffffffffffffffffffff1673ffffffffffffffffffffffffffffffffffffffff16815260200190815260200160002060009054906101000a900460ff166108fc576040517f08c379a00000000000000000000000000000000000000000000000000000000081526004016108f3906116cd565b60405180910390fd5b6001600081548092919061090f9061171c565b91905055506002866040516109249190611350565b90815260200160405180910390206040518061012001604052806001548152602001888152602001600460003373ffffffffffffffffffffffffffffffffffffffff1673ffffffffffffffffffffffffffffffffffffffff1681526020019081526020016000208054610996906112e3565b80601f01602080910402602001604051908101604052809291908181526020018280546109c2906112e3565b8015610a0f5780601f106109e457610100808354040283529160200191610a0f565b820191906000526020600020905b8154815290600101906020018083116109f257829003601f168201915b50505050508152602001878152602001868152602001858152602001848152602001838152602001428152509080600181540180825580915050600190039060005260206000209060090201600090919091909150600082015181600001556020820151816001019081610a83919061157f565b506040820151816002019081610a99919061157f565b506060820151816003019081610aaf919061157f565b506080820151816004019081610ac5919061157f565b5060a0820151816005019081610adb919061157f565b5060c0820151816006019081610af1919061157f565b5060e0820151816007019081610b07919061157f565b50610100820151816008015550507fbd0ee5ea7025d9c57d179b2ab864af8addb63b746cb7544d7e152d2f5943212f86600460003373ffffffffffffffffffffffffffffffffffffffff1673ffffffffffffffffffffffffffffffffffffffff168152602001908152602001600020604051610b849291906117e8565b60405180910390a1505050505050565b600073ffffffffffffffffffffffffffffffffffffffff82169050919050565b6000610bbf82610b94565b9050919050565b610bcf81610bb4565b82525050565b6000602082019050610bea6000830184610bc6565b92915050565b6000819050919050565b610c0381610bf0565b82525050565b6000602082019050610c1e6000830184610bfa565b92915050565b6000604051905090565b600080fd5b600080fd5b610c4181610bb4565b8114610c4c57600080fd5b50565b600081359050610c5e81610c38565b92915050565b600060208284031215610c7a57610c79610c2e565b5b6000610c8884828501610c4f565b91505092915050565b600081519050919050565b600082825260208201905092915050565b60005b83811015610ccb578082015181840152602081019050610cb0565b60008484015250505050565b6000601f19601f8301169050919050565b6000610cf382610c91565b610cfd8185610c9c565b9350610d0d818560208601610cad565b610d1681610cd7565b840191505092915050565b60006020820190508181036000830152610d3b8184610ce8565b905092915050565b600080fd5b600080fd5b7f4e487b7100000000000000000000000000000000000000000000000000000000600052604160045260246000fd5b610d8582610cd7565b810181811067ffffffffffffffff82111715610da457610da3610d4d565b5b80604052505050565b6000610db7610c24565b9050610dc38282610d7c565b919050565b600067ffffffffffffffff821115610de357610de2610d4d565b5b610dec82610cd7565b9050602081019050919050565b82818337600083830152505050565b6000610e1b610e1684610dc8565b610dad565b905082815260208101848484011115610e3757610e36610d48565b5b610e42848285610df9565b509392505050565b600082601f830112610e5f57610e5e610d43565b5b8135610e6f848260208601610e08565b91505092915050565b600060208284031215610e8e57610e8d610c2e565b5b600082013567ffffffffffffffff811115610eac57610eab610c33565b5b610eb884828501610e4a565b91505092915050565b600081519050919050565b600082825260208201905092915050565b6000819050602082019050919050565b610ef681610bf0565b82525050565b600082825260208201905092915050565b6000610f1882610c91565b610f228185610efc565b9350610f32818560208601610cad565b610f3b81610cd7565b840191505092915050565b600061012083016000830151610f5f6000860182610eed565b5060208301518482036020860152610f778282610f0d565b91505060408301518482036040860152610f918282610f0d565b91505060608301518482036060860152610fab8282610f0d565b91505060808301518482036080860152610fc58282610f0d565b91505060a083015184820360a0860152610fdf8282610f0d565b91505060c083015184820360c0860152610ff98282610f0d565b91505060e083015184820360e08601526110138282610f0d565b91505061010083015161102a610100860182610eed565b508091505092915050565b60006110418383610f46565b905092915050565b6000602082019050919050565b600061106182610ec1565b61106b8185610ecc565b93508360208202850161107d85610edd565b8060005b858110156110b9578484038952815161109a8582611035565b94506110a583611049565b925060208a01995050600181019050611081565b50829750879550505050505092915050565b600060208201905081810360008301526110e58184611056565b905092915050565b60008115159050919050565b611102816110ed565b82525050565b600060208201905061111d60008301846110f9565b92915050565b6000806040838503121561113a57611139610c2e565b5b600061114885828601610c4f565b925050602083013567ffffffffffffffff81111561116957611168610c33565b5b61117585828601610e4a565b9150509250929050565b60008060008060008060c0878903121561119c5761119b610c2e565b5b600087013567ffffffffffffffff8111156111ba576111b9610c33565b5b6111c689828a01610e4a565b965050602087013567ffffffffffffffff8111156111e7576111e6610c33565b5b6111f389828a01610e4a565b955050604087013567ffffffffffffffff81111561121457611213610c33565b5b61122089828a01610e4a565b945050606087013567ffffffffffffffff81111561124157611240610c33565b5b61124d89828a01610e4a565b935050608087013567ffffffffffffffff81111561126e5761126d610c33565b5b61127a89828a01610e4a565b92505060a087013567ffffffffffffffff81111561129b5761129a610c33565b5b6112a789828a01610e4a565b9150509295509295509295565b7f4e487b7100000000000000000000000000000000000000000000000000000000600052602260045260246000fd5b600060028204905060018216806112fb57607f821691505b60208210810361130e5761130d6112b4565b5b50919050565b600081905092915050565b600061132a82610c91565b6113348185611314565b9350611344818560208601610cad565b80840191505092915050565b600061135c828461131f565b915081905092915050565b7f41646d696e206f6e6c7900000000000000000000000000000000000000000000600082015250565b600061139d600a83610c9c565b91506113a882611367565b602082019050919050565b600060208201905081810360008301526113cc81611390565b9050919050565b60008190508160005260206000209050919050565b60006020601f8301049050919050565b600082821b905092915050565b6000600883026114357fffffffffffffffffffffffffffffffffffffffffffffffffffffffffffffffff826113f8565b61143f86836113f8565b95508019841693508086168417925050509392505050565b6000819050919050565b600061147c61147761147284610bf0565b611457565b610bf0565b9050919050565b6000819050919050565b61149683611461565b6114aa6114a282611483565b848454611405565b825550505050565b600090565b6114bf6114b2565b6114ca81848461148d565b505050565b5b818110156114ee576114e36000826114b7565b6001810190506114d0565b5050565b601f82111561153357611504816113d3565b61150d846113e8565b8101602085101561151c578190505b611530611528856113e8565b8301826114cf565b50505b505050565b600082821c905092915050565b600061155660001984600802611538565b1980831691505092915050565b600061156f8383611545565b9150826002028217905092915050565b61158882610c91565b67ffffffffffffffff8111156115a1576115a0610d4d565b5b6115ab82546112e3565b6115b68282856114f2565b600060209050601f8311600181146115e957600084156115d7578287015190505b6115e18582611563565b865550611649565b601f1984166115f7866113d3565b60005b8281101561161f578489015182556001820191506020850194506020810190506115fa565b8683101561163c5784890151611638601f891682611545565b8355505b6001600288020188555050505b505050505050565b60006040820190506116666000830185610bc6565b81810360208301526116788184610ce8565b90509392505050565b7f4e6f7420617574686f72697a6564000000000000000000000000000000000000600082015250565b60006116b7600e83610c9c565b91506116c282611681565b602082019050919050565b600060208201905081810360008301526116e6816116aa565b9050919050565b7f4e487b7100000000000000000000000000000000000000000000000000000000600052601160045260246000fd5b600061172782610bf0565b91507fffffffffffffffffffffffffffffffffffffffffffffffffffffffffffffffff8203611759576117586116ed565b5b600182019050919050565b60008154611771816112e3565b61177b8186610c9c565b9450600182166000811461179657600181146117ac576117df565b60ff1983168652811515602002860193506117df565b6117b5856113d3565b60005b838110156117d7578154818901526001820191506020810190506117b8565b808801955050505b50505092915050565b600060408201905081810360008301526118028185610ce8565b905081810360208301526118168184611764565b9050939250505056fea2646970667358221220102bacd8f29ccc5b17d37ce976a2a5ba2c440f2b743a58fdb4dfaea8f695111b64736f6c63430008130033",
  "linkReferences": {},
  "deployedLinkReferences": {}
}